{
  "contractName": "SaleCreator",
  "abi": [
    {
      "inputs": [],
      "stateMutability": "nonpayable",
      "type": "constructor"
    },
    {
      "anonymous": false,
      "inputs": [
        {
          "indexed": false,
          "internalType": "address",
          "name": "",
          "type": "address"
        }
      ],
      "name": "SaleCreated",
      "type": "event"
    },
    {
      "stateMutability": "payable",
      "type": "fallback"
    },
    {
      "inputs": [],
      "name": "cancelCommission",
      "outputs": [
        {
          "internalType": "uint256",
          "name": "",
          "type": "uint256"
        }
      ],
      "stateMutability": "view",
      "type": "function"
    },
    {
      "inputs": [],
      "name": "commission",
      "outputs": [
        {
          "internalType": "uint256",
          "name": "",
          "type": "uint256"
        }
      ],
      "stateMutability": "view",
      "type": "function"
    },
    {
      "stateMutability": "payable",
      "type": "receive"
    },
    {
      "inputs": [
        {
          "internalType": "uint256",
          "name": "newCommission",
          "type": "uint256"
        },
        {
          "internalType": "uint256",
          "name": "newCancelCommission",
          "type": "uint256"
        }
      ],
      "name": "changeCommission",
      "outputs": [],
      "stateMutability": "nonpayable",
      "type": "function"
    },
    {
      "inputs": [
        {
          "components": [
            {
              "internalType": "string",
              "name": "saleCode",
              "type": "string"
            },
            {
              "internalType": "uint256",
              "name": "price",
              "type": "uint256"
            },
            {
              "internalType": "uint256",
              "name": "endDate",
              "type": "uint256"
            },
            {
              "internalType": "uint32",
              "name": "minNumberOfClients",
              "type": "uint32"
            }
          ],
          "internalType": "struct Sale",
          "name": "_sale",
          "type": "tuple"
        }
      ],
      "name": "createSale",
      "outputs": [
        {
          "internalType": "address",
          "name": "",
          "type": "address"
        }
      ],
      "stateMutability": "payable",
      "type": "function"
    },
    {
      "inputs": [
        {
          "internalType": "string",
          "name": "saleCode",
          "type": "string"
        },
        {
          "internalType": "address",
          "name": "store",
          "type": "address"
        }
      ],
      "name": "saleFinished",
      "outputs": [],
      "stateMutability": "nonpayable",
      "type": "function"
    },
    {
      "inputs": [],
      "name": "receiveCancelCommission",
      "outputs": [],
      "stateMutability": "payable",
      "type": "function"
    },
    {
      "inputs": [
        {
          "internalType": "string",
          "name": "_codeHash",
          "type": "string"
        },
        {
          "internalType": "string",
          "name": "_authorName",
          "type": "string"
        },
        {
          "internalType": "address",
          "name": "_sendHashTo",
          "type": "address"
        }
      ],
      "name": "projectSubmitted",
      "outputs": [],
      "stateMutability": "nonpayable",
      "type": "function"
    }
  ],
  "bytecode": "0x60806040526005600355600560045534801561001a57600080fd5b50336000806101000a81548173ffffffffffffffffffffffffffffffffffffffff021916908373ffffffffffffffffffffffffffffffffffffffff16021790555061315d8061006a6000396000f3fe6080604052600436106200007f5760003560e01c806361046e8f116200005557806361046e8f14620001675780636510f25f1462000197578063e148919114620001c5578063f7463e3b14620001f557620000c2565b80630175871214620000ff57806322cd39af146200012d5780632507768e146200015b57620000c2565b36620000c2576040517f08c379a0000000000000000000000000000000000000000000000000000000008152600401620000b99062000955565b60405180910390fd5b6040517f08c379a0000000000000000000000000000000000000000000000000000000008152600401620000f69062000a13565b60405180910390fd5b3480156200010c57600080fd5b506200012b600480360381019062000125919062000c10565b6200022b565b005b3480156200013a57600080fd5b5062000159600480360381019062000153919062000caa565b6200040e565b005b6200016562000588565b005b3480156200017457600080fd5b506200017f6200058a565b6040516200018e919062000d2b565b60405180910390f35b348015620001a457600080fd5b50620001c36004803603810190620001bd919062000d79565b62000590565b005b348015620001d257600080fd5b50620001dd62000633565b604051620001ec919062000d2b565b60405180910390f35b6200021360048036038101906200020d919062000eaf565b62000639565b60405162000222919062000f11565b60405180910390f35b60008054906101000a900473ffffffffffffffffffffffffffffffffffffffff1673ffffffffffffffffffffffffffffffffffffffff163373ffffffffffffffffffffffffffffffffffffffff1614620002bc576040517f08c379a0000000000000000000000000000000000000000000000000000000008152600401620002b39062000fa4565b60405180910390fd5b6000808273ffffffffffffffffffffffffffffffffffffffff1660008686604051602401620002ed92919062001048565b6040516020818303038152906040527f9a8181cb000000000000000000000000000000000000000000000000000000007bffffffffffffffffffffffffffffffffffffffffffffffffffffffff19166020820180517bffffffffffffffffffffffffffffffffffffffffffffffffffffffff8381831617835250505050604051620003799190620010d0565b60006040518083038185875af1925050503d8060008114620003b8576040519150601f19603f3d011682016040523d82523d6000602084013e620003bd565b606091505b5091509150816200040757806040517f08c379a0000000000000000000000000000000000000000000000000000000008152600401620003fe9190620010e9565b60405180910390fd5b5050505050565b3373ffffffffffffffffffffffffffffffffffffffff16600260008373ffffffffffffffffffffffffffffffffffffffff1673ffffffffffffffffffffffffffffffffffffffff168152602001908152602001600020836040516200047491906200114f565b908152602001604051809103902060009054906101000a900473ffffffffffffffffffffffffffffffffffffffff1673ffffffffffffffffffffffffffffffffffffffff161482604051602001620004cd91906200118e565b6040516020818303038152906040529062000520576040517f08c379a0000000000000000000000000000000000000000000000000000000008152600401620005179190620010e9565b60405180910390fd5b506001339080600181540180825580915050600190039060005260206000200160009091909190916101000a81548173ffffffffffffffffffffffffffffffffffffffff021916908373ffffffffffffffffffffffffffffffffffffffff1602179055505050565b565b60045481565b60008054906101000a900473ffffffffffffffffffffffffffffffffffffffff1673ffffffffffffffffffffffffffffffffffffffff163373ffffffffffffffffffffffffffffffffffffffff161462000621576040517f08c379a0000000000000000000000000000000000000000000000000000000008152600401620006189062000fa4565b60405180910390fd5b81600381905550806004819055505050565b60035481565b6000600354341462000682576040517f08c379a000000000000000000000000000000000000000000000000000000000815260040162000679906200122e565b60405180910390fd5b600073ffffffffffffffffffffffffffffffffffffffff16600260003373ffffffffffffffffffffffffffffffffffffffff1673ffffffffffffffffffffffffffffffffffffffff1681526020019081526020016000208360000151604051620006ed91906200114f565b908152602001604051809103902060009054906101000a900473ffffffffffffffffffffffffffffffffffffffff1673ffffffffffffffffffffffffffffffffffffffff161462000775576040517f08c379a00000000000000000000000000000000000000000000000000000000081526004016200076c90620012c6565b60405180910390fd5b600033600454846040516200078a906200089a565b6200079893929190620013c7565b604051809103906000f080158015620007b5573d6000803e3d6000fd5b50905080600260003373ffffffffffffffffffffffffffffffffffffffff1673ffffffffffffffffffffffffffffffffffffffff16815260200190815260200160002084600001516040516200080c91906200114f565b908152602001604051809103902060006101000a81548173ffffffffffffffffffffffffffffffffffffffff021916908373ffffffffffffffffffffffffffffffffffffffff1602179055507febe4caa5a549539b317ca5a7498a8570d6b8c322e90cc077f0dbb4ba669f6ece8160405162000889919062000f11565b60405180910390a180915050919050565b611d1c806200140c83390190565b600082825260208201905092915050565b7f43616c6c2064656661756c74656420746f202772656365697665272e204d616b60008201527f6520612063616c6c20746f207769746820612066756e6374696f6e206e616d6560208201527f2e00000000000000000000000000000000000000000000000000000000000000604082015250565b60006200093d604183620008a8565b91506200094a82620008b9565b606082019050919050565b6000602082019050818103600083015262000970816200092e565b9050919050565b7f43616c6c2064656661756c74656420746f202766616c6c6261636b272e204d6160008201527f6b6520612063616c6c20746f207769746820612066756e6374696f6e206e616d60208201527f652e000000000000000000000000000000000000000000000000000000000000604082015250565b6000620009fb604283620008a8565b915062000a088262000977565b606082019050919050565b6000602082019050818103600083015262000a2e81620009ec565b9050919050565b6000604051905090565b600080fd5b600080fd5b600080fd5b600080fd5b6000601f19601f8301169050919050565b7f4e487b7100000000000000000000000000000000000000000000000000000000600052604160045260246000fd5b62000a9e8262000a53565b810181811067ffffffffffffffff8211171562000ac05762000abf62000a64565b5b80604052505050565b600062000ad562000a35565b905062000ae3828262000a93565b919050565b600067ffffffffffffffff82111562000b065762000b0562000a64565b5b62000b118262000a53565b9050602081019050919050565b82818337600083830152505050565b600062000b4462000b3e8462000ae8565b62000ac9565b90508281526020810184848401111562000b635762000b6262000a4e565b5b62000b7084828562000b1e565b509392505050565b600082601f83011262000b905762000b8f62000a49565b5b813562000ba284826020860162000b2d565b91505092915050565b600073ffffffffffffffffffffffffffffffffffffffff82169050919050565b600062000bd88262000bab565b9050919050565b62000bea8162000bcb565b811462000bf657600080fd5b50565b60008135905062000c0a8162000bdf565b92915050565b60008060006060848603121562000c2c5762000c2b62000a3f565b5b600084013567ffffffffffffffff81111562000c4d5762000c4c62000a44565b5b62000c5b8682870162000b78565b935050602084013567ffffffffffffffff81111562000c7f5762000c7e62000a44565b5b62000c8d8682870162000b78565b925050604062000ca08682870162000bf9565b9150509250925092565b6000806040838503121562000cc45762000cc362000a3f565b5b600083013567ffffffffffffffff81111562000ce55762000ce462000a44565b5b62000cf38582860162000b78565b925050602062000d068582860162000bf9565b9150509250929050565b6000819050919050565b62000d258162000d10565b82525050565b600060208201905062000d42600083018462000d1a565b92915050565b62000d538162000d10565b811462000d5f57600080fd5b50565b60008135905062000d738162000d48565b92915050565b6000806040838503121562000d935762000d9262000a3f565b5b600062000da38582860162000d62565b925050602062000db68582860162000d62565b9150509250929050565b600080fd5b600080fd5b600063ffffffff82169050919050565b62000de58162000dca565b811462000df157600080fd5b50565b60008135905062000e058162000dda565b92915050565b60006080828403121562000e245762000e2362000dc0565b5b62000e30608062000ac9565b9050600082013567ffffffffffffffff81111562000e535762000e5262000dc5565b5b62000e618482850162000b78565b600083015250602062000e778482850162000d62565b602083015250604062000e8d8482850162000d62565b604083015250606062000ea38482850162000df4565b60608301525092915050565b60006020828403121562000ec85762000ec762000a3f565b5b600082013567ffffffffffffffff81111562000ee95762000ee862000a44565b5b62000ef78482850162000e0b565b91505092915050565b62000f0b8162000bcb565b82525050565b600060208201905062000f28600083018462000f00565b92915050565b7f596f7520617265206e6f7420617574686f72697a656420746f2063616c6c207460008201527f686973206d6574686f642e000000000000000000000000000000000000000000602082015250565b600062000f8c602b83620008a8565b915062000f998262000f2e565b604082019050919050565b6000602082019050818103600083015262000fbf8162000f7d565b9050919050565b600081519050919050565b60005b8381101562000ff157808201518184015260208101905062000fd4565b8381111562001001576000848401525b50505050565b6000620010148262000fc6565b620010208185620008a8565b93506200103281856020860162000fd1565b6200103d8162000a53565b840191505092915050565b6000604082019050818103600083015262001064818562001007565b905081810360208301526200107a818462001007565b90509392505050565b600081519050919050565b600081905092915050565b6000620010a68262001083565b620010b281856200108e565b9350620010c481856020860162000fd1565b80840191505092915050565b6000620010de828462001099565b915081905092915050565b6000602082019050818103600083015262001105818462001007565b905092915050565b600081905092915050565b6000620011258262000fc6565b6200113181856200110d565b93506200114381856020860162000fd1565b80840191505092915050565b60006200115d828462001118565b915081905092915050565b7f53616c6520646f6573206e6f742065786973743a200000000000000000000000815250565b60006200119b8262001168565b601582019150620011ad828462001118565b915081905092915050565b7f436f6d6d697373696f6e20616d6f756e74206e6f7420657175616c20746f207360008201527f706563696669656420616d6f756e742e2041626f7274696e672e000000000000602082015250565b600062001216603a83620008a8565b91506200122382620011b8565b604082019050919050565b60006020820190508181036000830152620012498162001207565b9050919050565b7f5468652073616c6520616c72656164792065786973747320666f72207468652060008201527f73616c6520636f64652070726f76696465642e00000000000000000000000000602082015250565b6000620012ae603383620008a8565b9150620012bb8262001250565b604082019050919050565b60006020820190508181036000830152620012e1816200129f565b9050919050565b600082825260208201905092915050565b6000620013068262000fc6565b620013128185620012e8565b93506200132481856020860162000fd1565b6200132f8162000a53565b840191505092915050565b620013458162000d10565b82525050565b620013568162000dca565b82525050565b600060808301600083015184820360008601526200137b8282620012f9565b91505060208301516200139260208601826200133a565b506040830151620013a760408601826200133a565b506060830151620013bc60608601826200134b565b508091505092915050565b6000606082019050620013de600083018662000f00565b620013ed602083018562000d1a565b81810360408301526200140181846200135c565b905094935050505056fe60806040526000600760006101000a81548163ffffffff021916908363ffffffff1602179055506000600760046101000a81548160ff0219169083151502179055503480156200004e57600080fd5b5060405162001d1c38038062001d1c83398181016040528101906200007491906200058b565b6000816020015111620000be576040517f08c379a0000000000000000000000000000000000000000000000000000000008152600401620000b5906200068d565b60405180910390fd5b336000806101000a81548173ffffffffffffffffffffffffffffffffffffffff021916908373ffffffffffffffffffffffffffffffffffffffff1602179055508160088190555082600160006101000a81548173ffffffffffffffffffffffffffffffffffffffff021916908373ffffffffffffffffffffffffffffffffffffffff160217905550806002600082015181600001908051906020019062000167929190620001af565b50602082015181600101556040820151816002015560608201518160030160006101000a81548163ffffffff021916908363ffffffff16021790555090505050505062000713565b828054620001bd90620006de565b90600052602060002090601f016020900481019282620001e157600085556200022d565b82601f10620001fc57805160ff19168380011785556200022d565b828001600101855582156200022d579182015b828111156200022c5782518255916020019190600101906200020f565b5b5090506200023c919062000240565b5090565b5b808211156200025b57600081600090555060010162000241565b5090565b6000604051905090565b600080fd5b600080fd5b600073ffffffffffffffffffffffffffffffffffffffff82169050919050565b6000620002a08262000273565b9050919050565b620002b28162000293565b8114620002be57600080fd5b50565b600081519050620002d281620002a7565b92915050565b6000819050919050565b620002ed81620002d8565b8114620002f957600080fd5b50565b6000815190506200030d81620002e2565b92915050565b600080fd5b6000601f19601f8301169050919050565b7f4e487b7100000000000000000000000000000000000000000000000000000000600052604160045260246000fd5b620003638262000318565b810181811067ffffffffffffffff8211171562000385576200038462000329565b5b80604052505050565b60006200039a6200025f565b9050620003a8828262000358565b919050565b600080fd5b600080fd5b600080fd5b600067ffffffffffffffff821115620003da57620003d962000329565b5b620003e58262000318565b9050602081019050919050565b60005b8381101562000412578082015181840152602081019050620003f5565b8381111562000422576000848401525b50505050565b60006200043f6200043984620003bc565b6200038e565b9050828152602081018484840111156200045e576200045d620003b7565b5b6200046b848285620003f2565b509392505050565b600082601f8301126200048b576200048a620003b2565b5b81516200049d84826020860162000428565b91505092915050565b600063ffffffff82169050919050565b620004c181620004a6565b8114620004cd57600080fd5b50565b600081519050620004e181620004b6565b92915050565b6000608082840312156200050057620004ff62000313565b5b6200050c60806200038e565b9050600082015167ffffffffffffffff8111156200052f576200052e620003ad565b5b6200053d8482850162000473565b60008301525060206200055384828501620002fc565b60208301525060406200056984828501620002fc565b60408301525060606200057f84828501620004d0565b60608301525092915050565b600080600060608486031215620005a757620005a662000269565b5b6000620005b786828701620002c1565b9350506020620005ca86828701620002fc565b925050604084015167ffffffffffffffff811115620005ee57620005ed6200026e565b5b620005fc86828701620004e7565b9150509250925092565b600082825260208201905092915050565b7f53616c652070726963652063616e206e6f74206265207a65726f206f72206e6560008201527f6761746976652e00000000000000000000000000000000000000000000000000602082015250565b60006200067560278362000606565b9150620006828262000617565b604082019050919050565b60006020820190508181036000830152620006a88162000666565b9050919050565b7f4e487b7100000000000000000000000000000000000000000000000000000000600052602260045260246000fd5b60006002820490506001821680620006f757607f821691505b6020821081036200070d576200070c620006af565b5b50919050565b6115f980620007236000396000f3fe60806040526004361061008a5760003560e01c806365e6bcc91161005957806365e6bcc91461038e5780636ad1fe02146103b9578063975057e7146103e7578063e7e1049014610412578063ee97f7f31461041c57610305565b80633ccfd60b1461030a57806345e5ab441461032157806354ddd5d61461034c57806361046e8f1461036357610305565b366103055760001515600660003373ffffffffffffffffffffffffffffffffffffffff1673ffffffffffffffffffffffffffffffffffffffff16815260200190815260200160002060009054906101000a900460ff16151514610122576040517f08c379a000000000000000000000000000000000000000000000000000000000815260040161011990610c2a565b60405180910390fd5b6002600101543414610169576040517f08c379a000000000000000000000000000000000000000000000000000000000815260040161016090610cbc565b60405180910390fd5b610171610447565b156101b1576040517f08c379a00000000000000000000000000000000000000000000000000000000081526004016101a890610d4e565b60405180910390fd5b6101b9610484565b156101f9576040517f08c379a00000000000000000000000000000000000000000000000000000000081526004016101f090610dba565b60405180910390fd5b6001600660003373ffffffffffffffffffffffffffffffffffffffff1673ffffffffffffffffffffffffffffffffffffffff16815260200190815260200160002060006101000a81548160ff0219169083151502179055506007600081819054906101000a900463ffffffff168092919061027390610e19565b91906101000a81548163ffffffff021916908363ffffffff160217905550507ff1ba5e02dd9da55d69765f748d69bc46c6b056e18d3d4f619f1c372c5e568cb8336040516102c19190610e86565b60405180910390a16102d1610447565b15610303577f1e329906235f2e3d9f2db640385fbd015fb11105b2fe843af2e3370510fc615b60405160405180910390a15b005b600080fd5b34801561031657600080fd5b5061031f610493565b005b34801561032d57600080fd5b50610336610447565b6040516103439190610ebc565b60405180910390f35b34801561035857600080fd5b50610361610798565b005b34801561036f57600080fd5b5061037861095a565b6040516103859190610ef0565b60405180910390f35b34801561039a57600080fd5b506103a3610960565b6040516103b09190610f1a565b60405180910390f35b3480156103c557600080fd5b506103ce610976565b6040516103de9493929190610fbd565b60405180910390f35b3480156103f357600080fd5b506103fc610a2c565b6040516104099190610e86565b60405180910390f35b61041a610a52565b005b34801561042857600080fd5b50610431610ba9565b60405161043e9190610e86565b60405180910390f35b6000600260030160009054906101000a900463ffffffff1663ffffffff16600760009054906101000a900463ffffffff1663ffffffff1614905090565b60006002800154421015905090565b600160009054906101000a900473ffffffffffffffffffffffffffffffffffffffff1673ffffffffffffffffffffffffffffffffffffffff163373ffffffffffffffffffffffffffffffffffffffff1614610523576040517f08c379a000000000000000000000000000000000000000000000000000000000815260040161051a9061107b565b60405180910390fd5b61052b610447565b61056a576040517f08c379a00000000000000000000000000000000000000000000000000000000081526004016105619061110d565b60405180910390fd5b60003373ffffffffffffffffffffffffffffffffffffffff166108fc600760009054906101000a900463ffffffff1663ffffffff166002600101546105af919061112d565b9081150290604051600060405180830381858888f1935050505090508061060b576040517f08c379a0000000000000000000000000000000000000000000000000000000008152600401610602906111d3565b60405180910390fd5b60008060008054906101000a900473ffffffffffffffffffffffffffffffffffffffff1673ffffffffffffffffffffffffffffffffffffffff1660006002600001600160009054906101000a900473ffffffffffffffffffffffffffffffffffffffff166040516024016106809291906112e8565b6040516020818303038152906040527f22cd39af000000000000000000000000000000000000000000000000000000007bffffffffffffffffffffffffffffffffffffffffffffffffffffffff19166020820180517bffffffffffffffffffffffffffffffffffffffffffffffffffffffff838183161783525050505060405161070a919061135f565b60006040518083038185875af1925050503d8060008114610747576040519150601f19603f3d011682016040523d82523d6000602084013e61074c565b606091505b50915091508161079357806040517f08c379a000000000000000000000000000000000000000000000000000000000815260040161078a9190611376565b60405180910390fd5b505050565b60011515600660003373ffffffffffffffffffffffffffffffffffffffff1673ffffffffffffffffffffffffffffffffffffffff16815260200190815260200160002060009054906101000a900460ff1615151461082b576040517f08c379a000000000000000000000000000000000000000000000000000000000815260040161082290611430565b60405180910390fd5b610833610447565b15610873576040517f08c379a000000000000000000000000000000000000000000000000000000000815260040161086a906114e8565b60405180910390fd5b6007600081819054906101000a900463ffffffff168092919061089590611508565b91906101000a81548163ffffffff021916908363ffffffff160217905550506000600660003373ffffffffffffffffffffffffffffffffffffffff1673ffffffffffffffffffffffffffffffffffffffff16815260200190815260200160002060006101000a81548160ff0219169083151502179055503373ffffffffffffffffffffffffffffffffffffffff166108fc6002600101549081150290604051600060405180830381858888f19350505050158015610957573d6000803e3d6000fd5b50565b60085481565b600760009054906101000a900463ffffffff1681565b600280600001805461098790611222565b80601f01602080910402602001604051908101604052809291908181526020018280546109b390611222565b8015610a005780601f106109d557610100808354040283529160200191610a00565b820191906000526020600020905b8154815290600101906020018083116109e357829003601f168201915b5050505050908060010154908060020154908060030160009054906101000a900463ffffffff16905084565b600160009054906101000a900473ffffffffffffffffffffffffffffffffffffffff1681565b600160009054906101000a900473ffffffffffffffffffffffffffffffffffffffff1673ffffffffffffffffffffffffffffffffffffffff163373ffffffffffffffffffffffffffffffffffffffff1614610ae2576040517f08c379a0000000000000000000000000000000000000000000000000000000008152600401610ad99061107b565b60405180910390fd5b6008543414610b26576040517f08c379a0000000000000000000000000000000000000000000000000000000008152600401610b1d906115a3565b60405180910390fd5b60008054906101000a900473ffffffffffffffffffffffffffffffffffffffff1673ffffffffffffffffffffffffffffffffffffffff16632507768e346040518263ffffffff1660e01b81526004016000604051808303818588803b158015610b8e57600080fd5b505af1158015610ba2573d6000803e3d6000fd5b5050505050565b60008054906101000a900473ffffffffffffffffffffffffffffffffffffffff1681565b600082825260208201905092915050565b7f596f75206861766520616c72656164792070617965642e000000000000000000600082015250565b6000610c14601783610bcd565b9150610c1f82610bde565b602082019050919050565b60006020820190508181036000830152610c4381610c07565b9050919050565b7f53656e74204574686572206973206e6f7420657175616c20746f20707269636560008201527f2e00000000000000000000000000000000000000000000000000000000000000602082015250565b6000610ca6602183610bcd565b9150610cb182610c4a565b604082019050919050565b60006020820190508181036000830152610cd581610c99565b9050919050565b7f53616c652068617320616c72656164792072656163686564206d696e696d756d60008201527f206e756d626572206f662072657175697265642075736572732e000000000000602082015250565b6000610d38603a83610bcd565b9150610d4382610cdc565b604082019050919050565b60006020820190508181036000830152610d6781610d2b565b9050919050565b7f53616c652068617320657870697265642e000000000000000000000000000000600082015250565b6000610da4601183610bcd565b9150610daf82610d6e565b602082019050919050565b60006020820190508181036000830152610dd381610d97565b9050919050565b7f4e487b7100000000000000000000000000000000000000000000000000000000600052601160045260246000fd5b600063ffffffff82169050919050565b6000610e2482610e09565b915063ffffffff8203610e3a57610e39610dda565b5b600182019050919050565b600073ffffffffffffffffffffffffffffffffffffffff82169050919050565b6000610e7082610e45565b9050919050565b610e8081610e65565b82525050565b6000602082019050610e9b6000830184610e77565b92915050565b60008115159050919050565b610eb681610ea1565b82525050565b6000602082019050610ed16000830184610ead565b92915050565b6000819050919050565b610eea81610ed7565b82525050565b6000602082019050610f056000830184610ee1565b92915050565b610f1481610e09565b82525050565b6000602082019050610f2f6000830184610f0b565b92915050565b600081519050919050565b60005b83811015610f5e578082015181840152602081019050610f43565b83811115610f6d576000848401525b50505050565b6000601f19601f8301169050919050565b6000610f8f82610f35565b610f998185610bcd565b9350610fa9818560208601610f40565b610fb281610f73565b840191505092915050565b60006080820190508181036000830152610fd78187610f84565b9050610fe66020830186610ee1565b610ff36040830185610ee1565b6110006060830184610f0b565b95945050505050565b7f596f7520617265206e6f7420617574686f72697a656420746f2063616c6c207460008201527f686973206d6574686f642e000000000000000000000000000000000000000000602082015250565b6000611065602b83610bcd565b915061107082611009565b604082019050919050565b6000602082019050818103600083015261109481611058565b9050919050565b7f53616c6520686173206e6f742072656163686564206d696e696d756d206e756d60008201527f626572206f662072657175697265642075736572732e00000000000000000000602082015250565b60006110f7603683610bcd565b91506111028261109b565b604082019050919050565b60006020820190508181036000830152611126816110ea565b9050919050565b600061113882610ed7565b915061114383610ed7565b9250817fffffffffffffffffffffffffffffffffffffffffffffffffffffffffffffffff048311821515161561117c5761117b610dda565b5b828202905092915050565b7f4572726f7220706179696e67207468652073746f7265206f776e657200000000600082015250565b60006111bd601c83610bcd565b91506111c882611187565b602082019050919050565b600060208201905081810360008301526111ec816111b0565b9050919050565b7f4e487b7100000000000000000000000000000000000000000000000000000000600052602260045260246000fd5b6000600282049050600182168061123a57607f821691505b60208210810361124d5761124c6111f3565b5b50919050565b60008190508160005260206000209050919050565b6000815461127581611222565b61127f8186610bcd565b9450600182166000811461129a57600181146112ac576112df565b60ff19831686526020860193506112df565b6112b585611253565b60005b838110156112d7578154818901526001820191506020810190506112b8565b808801955050505b50505092915050565b600060408201905081810360008301526113028185611268565b90506113116020830184610e77565b9392505050565b600081519050919050565b600081905092915050565b600061133982611318565b6113438185611323565b9350611353818560208601610f40565b80840191505092915050565b600061136b828461132e565b915081905092915050565b600060208201905081810360008301526113908184610f84565b905092915050565b7f596f7520617265206e6f742061206465706f7369746f72206f7220616c72656160008201527f64792068617665206265656e20726566756e6465642e20596f752063616e206e60208201527f6f742067657420726566756e6465642e00000000000000000000000000000000604082015250565b600061141a605083610bcd565b915061142582611398565b606082019050919050565b600060208201905081810360008301526114498161140d565b9050919050565b7f53616c652068617320616c72656164792072656163686564206d696e696d756d60008201527f206e756d626572206f662072657175697265642075736572732e20596f75206360208201527f616e206e6f742067657420726566756e64656420616e79206c6f6e6765722e00604082015250565b60006114d2605f83610bcd565b91506114dd82611450565b606082019050919050565b60006020820190508181036000830152611501816114c5565b9050919050565b600061151382610e09565b91506000820361152657611525610dda565b5b600182039050919050565b7f43616e63656c20636f6d6d697373696f6e20616d6f756e74206e6f742073656e60008201527f742e2041626f7274696e672e0000000000000000000000000000000000000000602082015250565b600061158d602c83610bcd565b915061159882611531565b604082019050919050565b600060208201905081810360008301526115bc81611580565b905091905056fea2646970667358221220e47c0529f5244320df28d9a81034eb4c491b24e654865ffb7a1fc0e991242f3264736f6c634300080e0033a2646970667358221220195ed1c63bac7bdbc6db15e4f4de4c3851fa79a8066b8934fd7557ef73bb38da64736f6c634300080e0033",
  "immutableReferences": {},
  "source": "// SPDX-License-Identifier: GPL-3.0\r\n\r\npragma solidity >=0.7.0 <0.9.0;\r\n\r\ncontract SaleCreator {\r\n    address private owner;\r\n    address[] private finishedSales; //this is really not necessary. but project assignment required it...\r\n    mapping(address => mapping(string => address)) merchantSales;\r\n    uint256 public commission = 5; //in Wei\r\n    uint256 public cancelCommission = 5; //in Wei\r\n\r\n    constructor() {\r\n        owner = msg.sender;\r\n    }\r\n\r\n    function changeCommission(\r\n        uint256 newCommission,\r\n        uint256 newCancelCommission\r\n    ) external onlyOwner {\r\n        commission = newCommission;\r\n        cancelCommission = newCancelCommission;\r\n    }\r\n\r\n    event SaleCreated(address);\r\n\r\n    modifier onlyOwner() {\r\n        require(\r\n            msg.sender == owner,\r\n            \"You are not authorized to call this method.\"\r\n        );\r\n        _;\r\n    }\r\n\r\n    function createSale(Sale memory _sale) external payable returns (address) {\r\n        require(\r\n            msg.value == commission,\r\n            \"Commission amount not equal to specified amount. Aborting.\"\r\n        );\r\n        require(\r\n            merchantSales[msg.sender][_sale.saleCode] == address(0),\r\n            \"The sale already exists for the sale code provided.\"\r\n        );\r\n\r\n        address newSale = address(\r\n            new SaleContract(msg.sender, cancelCommission, _sale)\r\n        );\r\n        merchantSales[msg.sender][_sale.saleCode] = newSale;\r\n\r\n        emit SaleCreated(newSale);\r\n\r\n        return newSale;\r\n    }\r\n\r\n    function saleFinished(string memory saleCode, address store) public {\r\n        require(\r\n            merchantSales[store][saleCode] == msg.sender,\r\n            string.concat(\"Sale does not exist: \", saleCode)\r\n        );\r\n\r\n        finishedSales.push(msg.sender);\r\n    }\r\n\r\n    function receiveCancelCommission() external payable {}\r\n\r\n    function projectSubmitted(\r\n        string memory _codeHash,\r\n        string memory _authorName,\r\n        address _sendHashTo\r\n    ) external onlyOwner {\r\n        (bool isSuccessful, bytes memory returnData) = address(_sendHashTo)\r\n            .call{value: 0}(\r\n            abi.encodeWithSignature(\r\n                \"recieveProjectData(string,string)\",\r\n                _codeHash,\r\n                _authorName\r\n            )\r\n        );\r\n        if (!isSuccessful) revert(string(returnData));\r\n    }\r\n\r\n    receive() external payable {\r\n        revert(\r\n            \"Call defaulted to 'receive'. Make a call to with a function name.\"\r\n        ); //so that merchants only call 'createSale'\r\n    }\r\n\r\n    fallback() external payable {\r\n        revert(\r\n            \"Call defaulted to 'fallback'. Make a call to with a function name.\"\r\n        ); //so that merchants only call 'createSale'\r\n    }\r\n}\r\n\r\nstruct Sale {\r\n    string saleCode;\r\n    uint256 price;\r\n    uint256 endDate;\r\n    uint32 minNumberOfClients;\r\n}\r\n\r\ncontract SaleContract {\r\n    address public master;\r\n    address public store;\r\n    Sale public sale;\r\n    mapping(address => bool) private clients;\r\n    uint32 public payingClientCount = 0;\r\n    bool private saleExpired = false;\r\n    uint256 public cancelCommission; //in Wei\r\n\r\n    constructor(\r\n        address _store,\r\n        uint256 _cancelCommission,\r\n        Sale memory _sale\r\n    ) {\r\n        require(_sale.price > 0, \"Sale price can not be zero or negative.\");\r\n\r\n        master = msg.sender;\r\n        cancelCommission = _cancelCommission;\r\n        store = _store;\r\n        sale = _sale;\r\n    }\r\n\r\n    event DepositReceived(address);\r\n    event SaleTargetReached();\r\n\r\n    receive() external payable {\r\n        require(clients[msg.sender] == false, \"You have already payed.\");\r\n        require(msg.value == sale.price, \"Sent Ether is not equal to price.\");\r\n        require(\r\n            !isSaleTargetReached(),\r\n            \"Sale has already reached minimum number of required users.\"\r\n        );\r\n        require(!isSaleExpired(), \"Sale has expired.\");\r\n\r\n        //balances[msg.sender] += msg.value;\r\n        clients[msg.sender] = true;\r\n\r\n        payingClientCount++;\r\n\r\n        emit DepositReceived(msg.sender);\r\n\r\n        if (isSaleTargetReached()) emit SaleTargetReached();\r\n    }\r\n\r\n    function isSaleExpired() private view returns (bool) {\r\n        //require (!saleTargetReached(), \"Sale has already reached minimum number of required users.\");\r\n        //require (block.timestamp > sale.endDate);\r\n\r\n        return block.timestamp >= sale.endDate; //todo: take 900 seconds into account?\r\n    }\r\n\r\n    function isSaleTargetReached() public view returns (bool) {\r\n        return (payingClientCount == sale.minNumberOfClients);\r\n    }\r\n\r\n    modifier isStoreOwner() {\r\n        require(\r\n            msg.sender == store,\r\n            \"You are not authorized to call this method.\"\r\n        );\r\n        _;\r\n    }\r\n\r\n    //pattern: pull instead of push\r\n    function retrieveRefund() external {\r\n        require(\r\n            clients[msg.sender] == true,\r\n            \"You are not a depositor or already have been refunded. You can not get refunded.\"\r\n        );\r\n        require(\r\n            !isSaleTargetReached(),\r\n            \"Sale has already reached minimum number of required users. You can not get refunded any longer.\"\r\n        );\r\n        //require(isSaleExpired(), \"Sale has not expired yet.\");\r\n\r\n        payingClientCount--;\r\n        clients[msg.sender] = false; // pattern: checks effects interaction\r\n\r\n        payable(msg.sender).transfer(sale.price);\r\n    }\r\n\r\n    function withdraw() external isStoreOwner {\r\n        require(\r\n            isSaleTargetReached(),\r\n            \"Sale has not reached minimum number of required users.\"\r\n        );\r\n\r\n        bool isSent = payable(msg.sender).send(sale.price * payingClientCount);\r\n        if (!isSent) revert(\"Error paying the store owner\");\r\n\r\n        (bool isSuccessful, bytes memory returnData) = master.call{value: 0}(\r\n            abi.encodeWithSignature(\r\n                \"saleFinished(string,address)\",\r\n                sale.saleCode,\r\n                store\r\n            )\r\n        ); // an example of call call\r\n        if (!isSuccessful) revert(string(returnData));\r\n    }\r\n\r\n    function cancelSale() external payable isStoreOwner {\r\n        require(\r\n            msg.value == cancelCommission,\r\n            \"Cancel commission amount not sent. Aborting.\"\r\n        );\r\n\r\n        (SaleCreator(payable(master))).receiveCancelCommission{\r\n            value: msg.value\r\n        }(); //an example of named call\r\n    }\r\n}\r\n",
  "sourcePath": "C:\\Users\\Dixto\\Desktop\\GITA\\project\\Swoopcoin\\contracts\\SwoopCoin.sol",
  "compiler": {
    "name": "solc",
    "version": "0.8.14+commit.80d49f37.Emscripten.clang"
  },
  "schemaVersion": "3.4.7",
  "updatedAt": "2022-06-20T07:38:12.755Z",
  "devdoc": {
    "kind": "dev",
    "methods": {},
    "version": 1
  },
  "userdoc": {
    "kind": "user",
    "methods": {},
    "version": 1
  }
}