{
  "contractName": "SaleCreator",
  "abi": [
    {
      "inputs": [],
      "stateMutability": "nonpayable",
      "type": "constructor"
    },
    {
      "anonymous": false,
      "inputs": [
        {
          "indexed": false,
          "internalType": "address",
          "name": "",
          "type": "address"
        }
      ],
      "name": "SaleCreated",
      "type": "event"
    },
    {
      "stateMutability": "payable",
      "type": "fallback"
    },
    {
      "inputs": [],
      "name": "cancelCommission",
      "outputs": [
        {
          "internalType": "uint256",
          "name": "",
          "type": "uint256"
        }
      ],
      "stateMutability": "view",
      "type": "function"
    },
    {
      "inputs": [],
      "name": "commission",
      "outputs": [
        {
          "internalType": "uint256",
          "name": "",
          "type": "uint256"
        }
      ],
      "stateMutability": "view",
      "type": "function"
    },
    {
      "stateMutability": "payable",
      "type": "receive"
    },
    {
      "inputs": [
        {
          "internalType": "uint256",
          "name": "newCommission",
          "type": "uint256"
        }
      ],
      "name": "changeCommission",
      "outputs": [],
      "stateMutability": "nonpayable",
      "type": "function"
    },
    {
      "inputs": [
        {
          "components": [
            {
              "internalType": "string",
              "name": "saleCode",
              "type": "string"
            },
            {
              "internalType": "uint256",
              "name": "price",
              "type": "uint256"
            },
            {
              "internalType": "uint256",
              "name": "endDate",
              "type": "uint256"
            },
            {
              "internalType": "uint32",
              "name": "minNumberOfClients",
              "type": "uint32"
            }
          ],
          "internalType": "struct Sale",
          "name": "_sale",
          "type": "tuple"
        }
      ],
      "name": "createSale",
      "outputs": [
        {
          "internalType": "address",
          "name": "",
          "type": "address"
        }
      ],
      "stateMutability": "payable",
      "type": "function"
    },
    {
      "inputs": [
        {
          "internalType": "string",
          "name": "saleCode",
          "type": "string"
        }
      ],
      "name": "saleFinished",
      "outputs": [],
      "stateMutability": "nonpayable",
      "type": "function"
    }
  ],
  "bytecode": "0x60806040526005600255600560035534801561001a57600080fd5b506129b98061002a6000396000f3fe608060405260043610620000555760003560e01c8063342a60f714620000d557806361046e8f1462000103578063df922f3a1462000133578063e14891911462000161578063f7463e3b14620001915762000098565b3662000098576040517f08c379a00000000000000000000000000000000000000000000000000000000081526004016200008f9062000584565b60405180910390fd5b6040517f08c379a0000000000000000000000000000000000000000000000000000000008152600401620000cc906200061c565b60405180910390fd5b348015620000e257600080fd5b50620001016004803603810190620000fb9190620007b4565b620001c7565b005b3480156200011057600080fd5b506200011b6200031c565b6040516200012a919062000820565b60405180910390f35b3480156200014057600080fd5b506200015f60048036038101906200015991906200086e565b62000322565b005b3480156200016e57600080fd5b50620001796200032c565b60405162000188919062000820565b60405180910390f35b620001af6004803603810190620001a991906200098f565b62000332565b604051620001be919062000a25565b60405180910390f35b600073ffffffffffffffffffffffffffffffffffffffff16600160003373ffffffffffffffffffffffffffffffffffffffff1673ffffffffffffffffffffffffffffffffffffffff168152602001908152602001600020826040516200022e919062000ac5565b908152602001604051809103902060009054906101000a900473ffffffffffffffffffffffffffffffffffffffff1673ffffffffffffffffffffffffffffffffffffffff1603620002b6576040517f08c379a0000000000000000000000000000000000000000000000000000000008152600401620002ad9062000b2e565b60405180910390fd5b6000339080600181540180825580915050600190039060005260206000200160009091909190916101000a81548173ffffffffffffffffffffffffffffffffffffffff021916908373ffffffffffffffffffffffffffffffffffffffff16021790555050565b60035481565b8060028190555050565b60025481565b600060025434146200037b576040517f08c379a0000000000000000000000000000000000000000000000000000000008152600401620003729062000bc6565b60405180910390fd5b600073ffffffffffffffffffffffffffffffffffffffff16600160003373ffffffffffffffffffffffffffffffffffffffff1673ffffffffffffffffffffffffffffffffffffffff1681526020019081526020016000208360000151604051620003e6919062000ac5565b908152602001604051809103902060009054906101000a900473ffffffffffffffffffffffffffffffffffffffff1673ffffffffffffffffffffffffffffffffffffffff16146200046e576040517f08c379a0000000000000000000000000000000000000000000000000000000008152600401620004659062000c5e565b60405180910390fd5b600033836040516200048090620004ef565b6200048d92919062000d5f565b604051809103906000f080158015620004aa573d6000803e3d6000fd5b5090507febe4caa5a549539b317ca5a7498a8570d6b8c322e90cc077f0dbb4ba669f6ece81604051620004de919062000a25565b60405180910390a180915050919050565b611bf08062000d9483390190565b600082825260208201905092915050565b7f43616c6c2064656661756c74656420746f202772656365697665272e2043616c60008201527f6c206372656174655363616c652066756e6374696f6e2e000000000000000000602082015250565b60006200056c603783620004fd565b915062000579826200050e565b604082019050919050565b600060208201905081810360008301526200059f816200055d565b9050919050565b7f43616c6c2064656661756c74656420746f202766616c6c6261636b272e20436160008201527f6c6c206372656174655363616c652066756e6374696f6e2e0000000000000000602082015250565b600062000604603883620004fd565b91506200061182620005a6565b604082019050919050565b600060208201905081810360008301526200063781620005f5565b9050919050565b6000604051905090565b600080fd5b600080fd5b600080fd5b600080fd5b6000601f19601f8301169050919050565b7f4e487b7100000000000000000000000000000000000000000000000000000000600052604160045260246000fd5b620006a7826200065c565b810181811067ffffffffffffffff82111715620006c957620006c86200066d565b5b80604052505050565b6000620006de6200063e565b9050620006ec82826200069c565b919050565b600067ffffffffffffffff8211156200070f576200070e6200066d565b5b6200071a826200065c565b9050602081019050919050565b82818337600083830152505050565b60006200074d6200074784620006f1565b620006d2565b9050828152602081018484840111156200076c576200076b62000657565b5b6200077984828562000727565b509392505050565b600082601f83011262000799576200079862000652565b5b8135620007ab84826020860162000736565b91505092915050565b600060208284031215620007cd57620007cc62000648565b5b600082013567ffffffffffffffff811115620007ee57620007ed6200064d565b5b620007fc8482850162000781565b91505092915050565b6000819050919050565b6200081a8162000805565b82525050565b60006020820190506200083760008301846200080f565b92915050565b620008488162000805565b81146200085457600080fd5b50565b60008135905062000868816200083d565b92915050565b60006020828403121562000887576200088662000648565b5b6000620008978482850162000857565b91505092915050565b600080fd5b600080fd5b600063ffffffff82169050919050565b620008c581620008aa565b8114620008d157600080fd5b50565b600081359050620008e581620008ba565b92915050565b600060808284031215620009045762000903620008a0565b5b620009106080620006d2565b9050600082013567ffffffffffffffff811115620009335762000932620008a5565b5b620009418482850162000781565b6000830152506020620009578482850162000857565b60208301525060406200096d8482850162000857565b60408301525060606200098384828501620008d4565b60608301525092915050565b600060208284031215620009a857620009a762000648565b5b600082013567ffffffffffffffff811115620009c957620009c86200064d565b5b620009d784828501620008eb565b91505092915050565b600073ffffffffffffffffffffffffffffffffffffffff82169050919050565b600062000a0d82620009e0565b9050919050565b62000a1f8162000a00565b82525050565b600060208201905062000a3c600083018462000a14565b92915050565b600081519050919050565b600081905092915050565b60005b8381101562000a7857808201518184015260208101905062000a5b565b8381111562000a88576000848401525b50505050565b600062000a9b8262000a42565b62000aa7818562000a4d565b935062000ab981856020860162000a58565b80840191505092915050565b600062000ad3828462000a8e565b915081905092915050565b7f53616c6520646f6573206e6f742065786973742e000000000000000000000000600082015250565b600062000b16601483620004fd565b915062000b238262000ade565b602082019050919050565b6000602082019050818103600083015262000b498162000b07565b9050919050565b7f436f6d6d697373696f6e20616d6f756e74206e6f7420657175616c20746f207360008201527f706563696669656420616d6f756e742e2041626f7274696e672e000000000000602082015250565b600062000bae603a83620004fd565b915062000bbb8262000b50565b604082019050919050565b6000602082019050818103600083015262000be18162000b9f565b9050919050565b7f5468652073616c6520616c72656164792065786973747320666f72207468652060008201527f73616c6520636f64652070726f76696465642e00000000000000000000000000602082015250565b600062000c46603383620004fd565b915062000c538262000be8565b604082019050919050565b6000602082019050818103600083015262000c798162000c37565b9050919050565b600082825260208201905092915050565b600062000c9e8262000a42565b62000caa818562000c80565b935062000cbc81856020860162000a58565b62000cc7816200065c565b840191505092915050565b62000cdd8162000805565b82525050565b62000cee81620008aa565b82525050565b6000608083016000830151848203600086015262000d13828262000c91565b915050602083015162000d2a602086018262000cd2565b50604083015162000d3f604086018262000cd2565b50606083015162000d54606086018262000ce3565b508091505092915050565b600060408201905062000d76600083018562000a14565b818103602083015262000d8a818462000cf4565b9050939250505056fe60806040526000600760006101000a81548163ffffffff021916908363ffffffff1602179055506000600760046101000a81548160ff02191690831515021790555060056008553480156200005357600080fd5b5060405162001bf038038062001bf0833981810160405281019062000079919062000588565b6000816020015111620000c3576040517f08c379a0000000000000000000000000000000000000000000000000000000008152600401620000ba9062000675565b60405180910390fd5b336000806101000a81548173ffffffffffffffffffffffffffffffffffffffff021916908373ffffffffffffffffffffffffffffffffffffffff16021790555081600160006101000a81548173ffffffffffffffffffffffffffffffffffffffff021916908373ffffffffffffffffffffffffffffffffffffffff160217905550806002600082015181600001908051906020019062000165929190620001ac565b50602082015181600101556040820151816002015560608201518160030160006101000a81548163ffffffff021916908363ffffffff1602179055509050505050620006fb565b828054620001ba90620006c6565b90600052602060002090601f016020900481019282620001de57600085556200022a565b82601f10620001f957805160ff19168380011785556200022a565b828001600101855582156200022a579182015b82811115620002295782518255916020019190600101906200020c565b5b5090506200023991906200023d565b5090565b5b80821115620002585760008160009055506001016200023e565b5090565b6000604051905090565b600080fd5b600080fd5b600073ffffffffffffffffffffffffffffffffffffffff82169050919050565b60006200029d8262000270565b9050919050565b620002af8162000290565b8114620002bb57600080fd5b50565b600081519050620002cf81620002a4565b92915050565b600080fd5b6000601f19601f8301169050919050565b7f4e487b7100000000000000000000000000000000000000000000000000000000600052604160045260246000fd5b6200032582620002da565b810181811067ffffffffffffffff82111715620003475762000346620002eb565b5b80604052505050565b60006200035c6200025c565b90506200036a82826200031a565b919050565b600080fd5b600080fd5b600080fd5b600067ffffffffffffffff8211156200039c576200039b620002eb565b5b620003a782620002da565b9050602081019050919050565b60005b83811015620003d4578082015181840152602081019050620003b7565b83811115620003e4576000848401525b50505050565b600062000401620003fb846200037e565b62000350565b90508281526020810184848401111562000420576200041f62000379565b5b6200042d848285620003b4565b509392505050565b600082601f8301126200044d576200044c62000374565b5b81516200045f848260208601620003ea565b91505092915050565b6000819050919050565b6200047d8162000468565b81146200048957600080fd5b50565b6000815190506200049d8162000472565b92915050565b600063ffffffff82169050919050565b620004be81620004a3565b8114620004ca57600080fd5b50565b600081519050620004de81620004b3565b92915050565b600060808284031215620004fd57620004fc620002d5565b5b62000509608062000350565b9050600082015167ffffffffffffffff8111156200052c576200052b6200036f565b5b6200053a8482850162000435565b600083015250602062000550848285016200048c565b602083015250604062000566848285016200048c565b60408301525060606200057c84828501620004cd565b60608301525092915050565b60008060408385031215620005a257620005a162000266565b5b6000620005b285828601620002be565b925050602083015167ffffffffffffffff811115620005d657620005d56200026b565b5b620005e485828601620004e4565b9150509250929050565b600082825260208201905092915050565b7f53616c652070726963652063616e206e6f74206265207a65726f206f72206e6560008201527f6761746976652e00000000000000000000000000000000000000000000000000602082015250565b60006200065d602783620005ee565b91506200066a82620005ff565b604082019050919050565b6000602082019050818103600083015262000690816200064e565b9050919050565b7f4e487b7100000000000000000000000000000000000000000000000000000000600052602260045260246000fd5b60006002820490506001821680620006df57607f821691505b602082108103620006f557620006f462000697565b5b50919050565b6114e5806200070b6000396000f3fe60806040526004361061008a5760003560e01c806365e6bcc91161005957806365e6bcc9146103575780636ad1fe0214610382578063975057e7146103b0578063e7e10490146103db578063ee97f7f3146103e5576102ce565b80633ccfd60b146102d357806345e5ab44146102ea57806354ddd5d61461031557806361046e8f1461032c576102ce565b366102ce5760001515600660003373ffffffffffffffffffffffffffffffffffffffff1673ffffffffffffffffffffffffffffffffffffffff16815260200190815260200160002060009054906101000a900460ff16151514610122576040517f08c379a000000000000000000000000000000000000000000000000000000000815260040161011990610b1b565b60405180910390fd5b6002600101543414610169576040517f08c379a000000000000000000000000000000000000000000000000000000000815260040161016090610bad565b60405180910390fd5b610171610410565b156101b1576040517f08c379a00000000000000000000000000000000000000000000000000000000081526004016101a890610c3f565b60405180910390fd5b6101b961044d565b156101f9576040517f08c379a00000000000000000000000000000000000000000000000000000000081526004016101f090610cab565b60405180910390fd5b6001600660003373ffffffffffffffffffffffffffffffffffffffff1673ffffffffffffffffffffffffffffffffffffffff16815260200190815260200160002060006101000a81548160ff0219169083151502179055506007600081819054906101000a900463ffffffff168092919061027390610d0a565b91906101000a81548163ffffffff021916908363ffffffff1602179055505061029a610410565b156102cc577f1e329906235f2e3d9f2db640385fbd015fb11105b2fe843af2e3370510fc615b60405160405180910390a15b005b600080fd5b3480156102df57600080fd5b506102e861045c565b005b3480156102f657600080fd5b506102ff610410565b60405161030c9190610d51565b60405180910390f35b34801561032157600080fd5b5061032a610636565b005b34801561033857600080fd5b506103416107fe565b60405161034e9190610d85565b60405180910390f35b34801561036357600080fd5b5061036c610804565b6040516103799190610daf565b60405180910390f35b34801561038e57600080fd5b5061039761081a565b6040516103a79493929190610e52565b60405180910390f35b3480156103bc57600080fd5b506103c56108d0565b6040516103d29190610edf565b60405180910390f35b6103e36108f6565b005b3480156103f157600080fd5b506103fa610a9a565b6040516104079190610edf565b60405180910390f35b6000600260030160009054906101000a900463ffffffff1663ffffffff16600760009054906101000a900463ffffffff1663ffffffff1614905090565b60006002800154421015905090565b600160009054906101000a900473ffffffffffffffffffffffffffffffffffffffff1673ffffffffffffffffffffffffffffffffffffffff163373ffffffffffffffffffffffffffffffffffffffff16146104ec576040517f08c379a00000000000000000000000000000000000000000000000000000000081526004016104e390610f6c565b60405180910390fd5b6104f4610410565b610533576040517f08c379a000000000000000000000000000000000000000000000000000000000815260040161052a90610ffe565b60405180910390fd5b60003373ffffffffffffffffffffffffffffffffffffffff166108fc600760009054906101000a900463ffffffff1663ffffffff16600260010154610578919061101e565b9081150290604051600060405180830381858888f193505050509050801561062e5760008054906101000a900473ffffffffffffffffffffffffffffffffffffffff1673ffffffffffffffffffffffffffffffffffffffff1663342a60f760026000016040518263ffffffff1660e01b81526004016105f7919061116d565b600060405180830381600087803b15801561061157600080fd5b505af1158015610625573d6000803e3d6000fd5b50505050610633565b600080fd5b50565b61063e610410565b1561067e576040517f08c379a000000000000000000000000000000000000000000000000000000000815260040161067590611227565b60405180910390fd5b61068661044d565b6106c5576040517f08c379a00000000000000000000000000000000000000000000000000000000081526004016106bc90611293565b60405180910390fd5b60011515600660003373ffffffffffffffffffffffffffffffffffffffff1673ffffffffffffffffffffffffffffffffffffffff16815260200190815260200160002060009054906101000a900460ff16151514610758576040517f08c379a000000000000000000000000000000000000000000000000000000000815260040161074f9061134b565b60405180910390fd5b6000600660003373ffffffffffffffffffffffffffffffffffffffff1673ffffffffffffffffffffffffffffffffffffffff16815260200190815260200160002060006101000a81548160ff0219169083151502179055503373ffffffffffffffffffffffffffffffffffffffff166108fc6002600101549081150290604051600060405180830381858888f193505050501580156107fb573d6000803e3d6000fd5b50565b60085481565b600760009054906101000a900463ffffffff1681565b600280600001805461082b906110a7565b80601f0160208091040260200160405190810160405280929190818152602001828054610857906110a7565b80156108a45780601f10610879576101008083540402835291602001916108a4565b820191906000526020600020905b81548152906001019060200180831161088757829003601f168201915b5050505050908060010154908060020154908060030160009054906101000a900463ffffffff16905084565b600160009054906101000a900473ffffffffffffffffffffffffffffffffffffffff1681565b600160009054906101000a900473ffffffffffffffffffffffffffffffffffffffff1673ffffffffffffffffffffffffffffffffffffffff163373ffffffffffffffffffffffffffffffffffffffff1614610986576040517f08c379a000000000000000000000000000000000000000000000000000000000815260040161097d90610f6c565b60405180910390fd5b60085434146109ca576040517f08c379a00000000000000000000000000000000000000000000000000000000081526004016109c1906113dd565b60405180910390fd5b60008060009054906101000a900473ffffffffffffffffffffffffffffffffffffffff1673ffffffffffffffffffffffffffffffffffffffff1634604051610a119061142e565b60006040518083038185875af1925050503d8060008114610a4e576040519150601f19603f3d011682016040523d82523d6000602084013e610a53565b606091505b5050905080610a97576040517f08c379a0000000000000000000000000000000000000000000000000000000008152600401610a8e9061148f565b60405180910390fd5b50565b60008054906101000a900473ffffffffffffffffffffffffffffffffffffffff1681565b600082825260208201905092915050565b7f596f75206861766520616c72656164792070617965642e000000000000000000600082015250565b6000610b05601783610abe565b9150610b1082610acf565b602082019050919050565b60006020820190508181036000830152610b3481610af8565b9050919050565b7f53656e74204574686572206973206e6f7420657175616c20746f20707269636560008201527f2e00000000000000000000000000000000000000000000000000000000000000602082015250565b6000610b97602183610abe565b9150610ba282610b3b565b604082019050919050565b60006020820190508181036000830152610bc681610b8a565b9050919050565b7f53616c652068617320616c72656164792072656163686564206d696e696d756d60008201527f206e756d626572206f662072657175697265642075736572732e000000000000602082015250565b6000610c29603a83610abe565b9150610c3482610bcd565b604082019050919050565b60006020820190508181036000830152610c5881610c1c565b9050919050565b7f53616c652068617320657870697265642e000000000000000000000000000000600082015250565b6000610c95601183610abe565b9150610ca082610c5f565b602082019050919050565b60006020820190508181036000830152610cc481610c88565b9050919050565b7f4e487b7100000000000000000000000000000000000000000000000000000000600052601160045260246000fd5b600063ffffffff82169050919050565b6000610d1582610cfa565b915063ffffffff8203610d2b57610d2a610ccb565b5b600182019050919050565b60008115159050919050565b610d4b81610d36565b82525050565b6000602082019050610d666000830184610d42565b92915050565b6000819050919050565b610d7f81610d6c565b82525050565b6000602082019050610d9a6000830184610d76565b92915050565b610da981610cfa565b82525050565b6000602082019050610dc46000830184610da0565b92915050565b600081519050919050565b60005b83811015610df3578082015181840152602081019050610dd8565b83811115610e02576000848401525b50505050565b6000601f19601f8301169050919050565b6000610e2482610dca565b610e2e8185610abe565b9350610e3e818560208601610dd5565b610e4781610e08565b840191505092915050565b60006080820190508181036000830152610e6c8187610e19565b9050610e7b6020830186610d76565b610e886040830185610d76565b610e956060830184610da0565b95945050505050565b600073ffffffffffffffffffffffffffffffffffffffff82169050919050565b6000610ec982610e9e565b9050919050565b610ed981610ebe565b82525050565b6000602082019050610ef46000830184610ed0565b92915050565b7f596f7520617265206e6f7420617574686f72697a656420746f2063616c6c207460008201527f686973206d6574686f642e000000000000000000000000000000000000000000602082015250565b6000610f56602b83610abe565b9150610f6182610efa565b604082019050919050565b60006020820190508181036000830152610f8581610f49565b9050919050565b7f53616c6520686173206e6f742072656163686564206d696e696d756d206e756d60008201527f626572206f662072657175697265642075736572732e00000000000000000000602082015250565b6000610fe8603683610abe565b9150610ff382610f8c565b604082019050919050565b6000602082019050818103600083015261101781610fdb565b9050919050565b600061102982610d6c565b915061103483610d6c565b9250817fffffffffffffffffffffffffffffffffffffffffffffffffffffffffffffffff048311821515161561106d5761106c610ccb565b5b828202905092915050565b7f4e487b7100000000000000000000000000000000000000000000000000000000600052602260045260246000fd5b600060028204905060018216806110bf57607f821691505b6020821081036110d2576110d1611078565b5b50919050565b60008190508160005260206000209050919050565b600081546110fa816110a7565b6111048186610abe565b9450600182166000811461111f576001811461113157611164565b60ff1983168652602086019350611164565b61113a856110d8565b60005b8381101561115c5781548189015260018201915060208101905061113d565b808801955050505b50505092915050565b6000602082019050818103600083015261118781846110ed565b905092915050565b7f53616c652068617320616c72656164792072656163686564206d696e696d756d60008201527f206e756d626572206f662072657175697265642075736572732e20596f75206360208201527f616e206e6f742067657420726566756e64656420616e79206c6f6e6765722e00604082015250565b6000611211605f83610abe565b915061121c8261118f565b606082019050919050565b6000602082019050818103600083015261124081611204565b9050919050565b7f53616c6520686173206e6f742065787069726564207965742e00000000000000600082015250565b600061127d601983610abe565b915061128882611247565b602082019050919050565b600060208201905081810360008301526112ac81611270565b9050919050565b7f596f7520617265206e6f742061206465706f7369746f72206f7220616c72656160008201527f64792068617665206265656e20726566756e6465642e20596f752063616e206e60208201527f6f742067657420726566756e6465642e00000000000000000000000000000000604082015250565b6000611335605083610abe565b9150611340826112b3565b606082019050919050565b6000602082019050818103600083015261136481611328565b9050919050565b7f436f6d6d697373696f6e20616d6f756e74206e6f742073656e742e2041626f7260008201527f74696e672e000000000000000000000000000000000000000000000000000000602082015250565b60006113c7602583610abe565b91506113d28261136b565b604082019050919050565b600060208201905081810360008301526113f6816113ba565b9050919050565b600081905092915050565b50565b60006114186000836113fd565b915061142382611408565b600082019050919050565b60006114398261140b565b9150819050919050565b7f63616e63656c53616c6520756e7375636365737366756c2e0000000000000000600082015250565b6000611479601883610abe565b915061148482611443565b602082019050919050565b600060208201905081810360008301526114a88161146c565b905091905056fea26469706673582212206b6a4ea22cc3a0aa73bd5029b6a7e8ef4e159a185ff4d334dd94c4ada030fcaf64736f6c634300080e0033a264697066735822122082f62fac61cf4714b95507499a34b8202a995b4c4e0f5faec7101d6a33552be764736f6c634300080e0033",
  "immutableReferences": {},
  "source": "// SPDX-License-Identifier: GPL-3.0\r\n\r\npragma solidity >=0.7.0 <0.9.0;\r\n\r\ncontract SaleCreator {\r\n    address[] private finishedSales;\r\n    mapping(address => mapping(string => address)) merchantSales;\r\n    uint256 public commission = 5; //in Wei\r\n    uint256 public cancelCommission = 5; //in Wei\r\n\r\n    constructor() {}\r\n\r\n    function changeCommission(uint256 newCommission) external {\r\n        commission = newCommission;\r\n    }\r\n\r\n    event SaleCreated(address);\r\n\r\n    function createSale(Sale memory _sale) external payable returns (address) {\r\n        require(\r\n            msg.value == commission,\r\n            \"Commission amount not equal to specified amount. Aborting.\"\r\n        );\r\n        require(\r\n            merchantSales[msg.sender][_sale.saleCode] == address(0),\r\n            \"The sale already exists for the sale code provided.\"\r\n        );\r\n\r\n        address newSale = address(new SaleContract(msg.sender, _sale));\r\n\r\n        emit SaleCreated(newSale);\r\n\r\n        return newSale;\r\n    }\r\n\r\n    function saleFinished(string memory saleCode) public {\r\n        require(\r\n            merchantSales[msg.sender][saleCode] != address(0),\r\n            \"Sale does not exist.\"\r\n        );\r\n\r\n        finishedSales.push(msg.sender);\r\n    }\r\n\r\n    receive() external payable {\r\n        revert(\"Call defaulted to 'receive'. Call createScale function.\"); //so that merchants only call 'createSale'\r\n    }\r\n\r\n    fallback() external payable {\r\n        revert(\"Call defaulted to 'fallback'. Call createScale function.\"); //so that merchants only call 'createSale'\r\n    }\r\n}\r\n\r\nstruct Sale {\r\n    string saleCode;\r\n    uint256 price;\r\n    uint256 endDate;\r\n    uint32 minNumberOfClients;\r\n}\r\n\r\ncontract SaleContract {\r\n    address public master;\r\n    address public store;\r\n    Sale public sale;\r\n    mapping(address => bool) private clients;\r\n    uint32 public payingClientCount = 0;\r\n    bool private saleExpired = false;\r\n    uint256 public cancelCommission = 5; //in Wei\r\n\r\n    constructor(address _store, Sale memory _sale) {\r\n        require(_sale.price > 0, \"Sale price can not be zero or negative.\");\r\n\r\n        master = msg.sender;\r\n        store = _store;\r\n        sale = _sale;\r\n    }\r\n\r\n    event SaleTargetReached();\r\n\r\n    receive() external payable {\r\n        require(clients[msg.sender] == false, \"You have already payed.\");\r\n        require(msg.value == sale.price, \"Sent Ether is not equal to price.\");\r\n        require(\r\n            !isSaleTargetReached(),\r\n            \"Sale has already reached minimum number of required users.\"\r\n        );\r\n        require(!isSaleExpired(), \"Sale has expired.\");\r\n\r\n        //balances[msg.sender] += msg.value;\r\n        clients[msg.sender] = true;\r\n\r\n        payingClientCount++;\r\n\r\n        if (isSaleTargetReached()) emit SaleTargetReached();\r\n    }\r\n\r\n    function isSaleExpired() private view returns (bool) {\r\n        //require (!saleTargetReached(), \"Sale has already reached minimum number of required users.\");\r\n        //require (block.timestamp > sale.endDate);\r\n\r\n        return block.timestamp >= sale.endDate; //todo: take 900 seconds into account?\r\n    }\r\n\r\n    function isSaleTargetReached() public view returns (bool) {\r\n        return (payingClientCount == sale.minNumberOfClients);\r\n    }\r\n\r\n    modifier isStoreOwner() {\r\n        require(\r\n            msg.sender == store,\r\n            \"You are not authorized to call this method.\"\r\n        );\r\n        _;\r\n    }\r\n\r\n    //pattern: pull instead of push\r\n    function retrieveRefund() external {\r\n        require(\r\n            !isSaleTargetReached(),\r\n            \"Sale has already reached minimum number of required users. You can not get refunded any longer.\"\r\n        );\r\n        require(isSaleExpired(), \"Sale has not expired yet.\");\r\n        require(\r\n            clients[msg.sender] == true,\r\n            \"You are not a depositor or already have been refunded. You can not get refunded.\"\r\n        );\r\n\r\n        clients[msg.sender] = false; // pattern: checks effects interaction\r\n\r\n        payable(msg.sender).transfer(sale.price);\r\n    }\r\n\r\n    function withdraw() external isStoreOwner {\r\n        require(\r\n            isSaleTargetReached(),\r\n            \"Sale has not reached minimum number of required users.\"\r\n        );\r\n\r\n        bool isSent = payable(msg.sender).send(sale.price * payingClientCount);\r\n\r\n        if (isSent) (SaleCreator(payable(master))).saleFinished(sale.saleCode);\r\n        else revert();\r\n        //require(isSent, \"withdraw unsuccessful.\");\r\n    }\r\n\r\n    function cancelSale() external payable isStoreOwner {\r\n        require(\r\n            msg.value == cancelCommission,\r\n            \"Commission amount not sent. Aborting.\"\r\n        );\r\n\r\n        (bool isSuccessful, ) = master.call{value: msg.value}(\"\");\r\n\r\n        require(isSuccessful, \"cancelSale unsuccessful.\");\r\n    }\r\n}\r\n",
  "sourcePath": "C:\\Users\\Dixto\\Desktop\\GITA\\project\\Swoopcoin\\contracts\\SwoopCoin.sol",
  "compiler": {
    "name": "solc",
    "version": "0.8.14+commit.80d49f37.Emscripten.clang"
  },
  "schemaVersion": "3.4.7",
  "updatedAt": "2022-06-20T02:59:46.905Z",
  "devdoc": {
    "kind": "dev",
    "methods": {},
    "version": 1
  },
  "userdoc": {
    "kind": "user",
    "methods": {},
    "version": 1
  }
}